{
  "contractName": "xyz",
  "abi": [
    {
      "inputs": [
        {
          "internalType": "uint256",
          "name": "_a",
          "type": "uint256"
        }
      ],
      "name": "setter",
      "outputs": [],
      "stateMutability": "nonpayable",
      "type": "function"
    },
    {
      "inputs": [],
      "name": "getter",
      "outputs": [
        {
          "internalType": "uint256",
          "name": "",
          "type": "uint256"
        }
      ],
      "stateMutability": "view",
      "type": "function"
    }
  ],
  "bytecode": "0x608060405234801561000f575f80fd5b506101af8061001d5f395ff3fe608060405234801561000f575f80fd5b5060043610610034575f3560e01c8063993a04b714610038578063d423740b14610056575b5f80fd5b610040610072565b60405161004d91906100a7565b60405180910390f35b610070600480360381019061006b91906100ee565b610086565b005b5f60015f546100819190610146565b905090565b805f8190555050565b5f819050919050565b6100a18161008f565b82525050565b5f6020820190506100ba5f830184610098565b92915050565b5f80fd5b6100cd8161008f565b81146100d7575f80fd5b50565b5f813590506100e8816100c4565b92915050565b5f60208284031215610103576101026100c0565b5b5f610110848285016100da565b91505092915050565b7f4e487b71000000000000000000000000000000000000000000000000000000005f52601160045260245ffd5b5f6101508261008f565b915061015b8361008f565b925082820190508082111561017357610172610119565b5b9291505056fea26469706673582212209d20cd2c2a0be1a89c59dcf51592ce9a56104dce113bc2c3907e6910d68e64ef64736f6c63430008140033",
  "immutableReferences": {},
  "source": "// SPDX-License-Identifier: MIT\npragma solidity  >=0.5.0 <0.9.0;\n\ncontract xyz {\n    uint256 a;\n    function setter(uint256 _a) public {\n        a = _a;\n    }   \n    function getter() public view returns (uint256) {\n        return a+1;\n    }\n}",
  "sourcePath": "C:\\Users\\Anurag\\Desktop\\Truffle\\contracts\\xyz.sol",
  "compiler": {
    "name": "solc",
    "version": "0.8.20+commit.a1b79de6.Emscripten.clang"
  },
  "schemaVersion": "3.4.14",
  "updatedAt": "2023-07-28T11:19:45.987Z",
  "devdoc": {
    "kind": "dev",
    "methods": {},
    "version": 1
  },
  "userdoc": {
    "kind": "user",
    "methods": {},
    "version": 1
  }
}